:1000000033C04DC04CC04BC04AC049C031C247C0CC
:1000100046C045C044C043C042C041C040C03FC0CC
:100020003EC03DC03CC000003A00370000003B002D
:10003000380000003900360001010102020202020C
:100040000202010101010102010204402010080422
:10005000020110204080088000000000050004001C
:10006000030000000000000011241FBECFE5D2E015
:10007000DEBFCDBF10E0A0E6B0E0EEE3FAE002C0E4
:1000800005900D92AC37B107D9F711E0ACE7B0E0BD
:1000900001C01D92A133B107E1F7A4D3CEC4B0CF04
:1000A0000F931F93CF93DF93EC018B012AD2FE01B4
:1000B000EE0FFF1FEE0FFF1FE458FF4F208131812D
:1000C00042815381621B730B840B950B6E37710554
:1000D0008105910530F4FE01EE0FFF1FE551FF4F42
:1000E00043C0DE01A851BF4F8C91FE0124E0EE0F0A
:1000F000FF1F2A95E1F7E80FF11DEE0FFF1FE857EC
:10010000FF4F118300838F5F8C93803108F01C9226
:10011000FE0175E0EE0FFF1F7A95E1F7E857FF4FFC
:1001200040E050E020E030E081919191480F591F6C
:100130002F5F3F4F20313105B9F7CC0FDD1F8E0106
:1001400005511F4F34E0569547953A95E1F7F80170
:1001500051834083D6D1CC0FDD1FC458DF4F688355
:1001600079838A839B83F80180819181DF91CF918C
:100170001F910F91089541E051E020E030E01AC056
:1001800011921192E417F507D9F7F90175E0EE0F16
:10019000FF1F7A95E1F7E857FF4F80E01192119227
:1001A0008F5F8031D9F72F5F3F4F405F5F4F233024
:1001B000310549F0F90164E0EE0FFF1F6A95E1F7A0
:1001C000EF50FF4FDDCF9DD160937C0070937D0099
:1001D00080937E0090937F0094D160938000709311
:1001E000810080938200909383008BD16093840080
:1001F000709385008093860090938700089586E031
:1002000062E03BD285E062E038D284E062E035D241
:1002100008950F931F93FC01DC01AC5DBE4F6C93FE
:10022000EE0FFF1FE05AFF4F808166D240E050E0A2
:1002300080912401882311F041E050E08091250154
:10024000282F30E0242B352B2115310511F021E02A
:1002500030E000E08091260190E0282B392B232B01
:1002600009F001E011E010278AE0612F45D286E015
:1002700080D2019719F483E0612F02C083E0602FE0
:100280003BD21F910F9108959F92AF92BF92CF9250
:10029000DF92EF92FF920F931F93CF93DF93EC01C6
:1002A000FC0144E0EE0FFF1F4A95E1F7EF50FF4FCE
:1002B00040E050E020E030E081919191480F591FDB
:1002C0002F5F3F4F28303105B9F75A0133E0B6941C
:1002D000A7943A95E1F7CE01B501E2DE6C0185E025
:1002E00048D28C0184E045D29924000F111F082BBD
:1002F000192B000F111F000F111F04591F4FEE245F
:10030000FF24C701B601A0D2F801208131814281CA
:10031000538100D36DD2A616B70610F49924939496
:10032000CE01692D76DFDF91CF911F910F91FF9064
:10033000EF90DF90CF90BF90AF909F900895EF9295
:10034000FF920F931F93CF93DF9376E6E72E70E033
:10035000F72E01E211E0C0E0D0E0F70180815DD12D
:10036000F8012081FE0163E0EE0FFF1F6A95E1F7BF
:10037000E20FF11DEE0FFF1FEF50FF4F91838083BF
:100380002F5FF8012083283008F01082CE017CDF37
:10039000219682E090E0E80EF91E0F5F1F4FC330F8
:1003A000D105D9F6DF91CF911F910F91FF90EF907A
:1003B0000895EF92FF920F931F93CF93DF9300E680
:1003C00010E0C0E0D0E0E82EFF24B7010C2E02C000
:1003D000759567950A94E2F76170F80180818CD178
:1003E00021960E5F1F4FC330D10579F76AEF70E099
:1003F00080E090E094D08091600060E07DD18091B9
:10040000620060E079D18091640060E075D1DF9195
:10041000CF911F910F91FF90EF9008951F93CF936D
:10042000DF93A9DEC0E0D0E0FE01E05AFF4F10816B
:10043000812F61E022D1812F60E05ED1FE01EA5977
:10044000FF4F808160E019D12296C630D10561F757
:100450008AE061E012D18AE061E04ED183E061E0A0
:100460000CD1CDDE81E0A5DFDF91CF911F91089502
:100470001F920F920FB60F9211242F933F938F93D9
:100480009F93AF93BF9380912B0190912C01A091EA
:100490002D01B0912E0130912F01232F2A5F2D378E
:1004A00028F02D570396A11DB11D03C00296A11D72
:1004B000B11D20932F0180932B0190932C01A093C9
:1004C0002D01B0932E018091270190912801A091D8
:1004D0002901B0912A010196A11DB11D8093270128
:1004E00090932801A0932901B0932A01BF91AF9165
:1004F0009F918F913F912F910F900FBE0F901F9062
:1005000018958FB7F89420912B0130912C014091D0
:100510002D0150912E018FBFB901CA0108959B0191
:10052000AC017FB7F8948091270190912801A091A8
:100530002901B0912A0162B708B601FE05C06F3FDC
:1005400019F00196A11DB11D7FBFBA2FA92F982FB9
:100550008827860F911DA11DB11D63E0880F991F8B
:10056000AA1FBB1F6A95D1F7BC012EC0FFB7F89434
:100570008091270190912801A0912901B0912A0131
:10058000E2B708B601FE05C0EF3F19F00196A11DC4
:10059000B11DFFBFBA2FA92F982F88278E0F911D4D
:1005A000A11DB11DE3E0880F991FAA1FBB1FEA958B
:1005B000D1F7861B970B885E9340C0F221503040E4
:1005C0004040504068517C4F21153105410551058F
:1005D00069F6089583B7887F826083BF789489B76E
:1005E000826089BF8FB5807F8FBD80B7826080BFFA
:1005F00080B7816080BF87B5816087BD86B58D7FFC
:1006000086BD86B5816086BD8FB584608FBD86B19D
:100610008877836886B9379A0895482F803108F023
:1006200040514A3018F020E030E025C08091300180
:1006300090E04F719C0156E0220F331F5A95E1F76D
:10064000422B47B927B18470907095958795959501
:10065000879534E0880F991F3A95E1F7282B27B941
:10066000369A3699FECF34B125B1922F80E0232FF0
:1006700030E0282B392BC9010895CF93DF93482F01
:1006800050E0CA01885B9F4FFC013491485C5F4F8A
:10069000FA018491882369F190E0880F991FFC0189
:1006A000EA5DFF4FA591B491FC01E45DFF4FC59158
:1006B000D491662351F42FB7F8948C91932F909591
:1006C00089238C93888189230BC0623061F42FB712
:1006D000F8948C91932F909589238C938881832B08
:1006E00088832FBF06C09FB7F8948C91832B8C937F
:1006F0009FBFDF91CF910895482F50E0CA01885ADB
:100700009F4FFC012491CA01885B9F4FFC013491EB
:10071000485C5F4FFA019491992351F1222381F0B3
:10072000233031F480B78F7780BF80B78F7B07C0CD
:10073000243031F480B78F7D80BF80B78F7E80BF3B
:10074000E92FF0E0EE0FFF1FE45DFF4FA591B4919C
:10075000662341F49FB7F8948C91309583238C9352
:100760009FBF08959FB7F8948C91832B8C939FBF64
:100770000895682F70E0CB01885A9F4FFC012491A7
:10078000CB01885B9F4FFC014491685C7F4FFB016C
:100790009491992319F420E030E022C0222381F0C3
:1007A000233031F480B78F7780BF80B78F7B07C04D
:1007B000243031F480B78F7D80BF80B78F7E80BFBB
:1007C000892F90E0880F991F8E5C9F4FFC01A591A7
:1007D000B4918C9120E030E0842311F021E030E0EE
:1007E000C901089581B781BFF5DE18DEA8DDFECF0F
:1007F00070D088F09F5790F0B92F9927B751A0F08B
:10080000D1F0660F771F881F991F1AF0BA95C9F7A4
:1008100012C0B13081F077D0B1E0089574C0672F75
:10082000782F8827B85F39F0B93FCCF38695779554
:100830006795B395D9F73EF490958095709561953D
:100840007F4F8F4F9F4F0895E89409C097FB3EF468
:1008500090958095709561957F4F8F4F9F4F99230D
:10086000A9F0F92F96E9BB279395F695879577958B
:100870006795B795F111F8CFFAF4BB0F11F460FF4B
:100880001BC06F5F7F4F8F4F9F4F16C0882311F0A3
:1008900096E911C0772321F09EE8872F762F05C0B7
:1008A000662371F096E8862F70E060E02AF09A9552
:1008B000660F771F881FDAF7880F9695879597F947
:1008C000089557FD9058440F551F59F05F3F71F040
:1008D0004795880F97FB991F61F09F3F79F08795A7
:1008E0000895121613061406551FF2CF4695F1DF30
:1008F00008C0161617061806991FF1CF86957105C0
:10090000610508940895E894BB2766277727CB01F3
:1009100097F908950AD080C071D028F076D018F0E9
:10092000952309F062C067C0EFCFCBDFA8F399230E
:10093000D9F35523C9F3950F50E0551FAA27EE2789
:10094000FF27BB2700240894679520F4E20FF31FCC
:10095000B41F0A1E220F331F441FAA1F6695A9F752
:10096000779530F4F30FB41F0A1E121E08F4639536
:10097000330F441FAA1F221F769599F7879520F4FD
:10098000B40F0A1E121E631F440FAA1F221F331F1B
:100990008695A9F7862F712D602D11249F57504001
:1009A0008AF0E1F088234AF0EE0FFF1FBB1F661F9D
:1009B000771F881F91505040A9F79E3F510570F056
:1009C00014C0A2CF5F3FECF3983EDCF38695779599
:1009D0006795B795F795E7959F5FC1F7FE2B880F51
:1009E000911D9695879597F9089597F99F6780E8E7
:1009F00070E060E008959FEF80EC089500240A9471
:100A00001616170618060906089500240A941216E9
:100A10001306140605060895092E0394000C11F41C
:100A2000882352F0BB0F40F4BF2B11F460FF04C0C9
:0E0A30006F5F7F4F8F4F9F4F0895F894FFCF59
:100A3E000D000C000B00100011001200CDCC4C3F2D
:0C0A4E009A99593F3333733F1F856B3F6B
:00000001FF
